:100000000C9434000C943E000C943E000C943E0082
:100010000C943E000C943E000C943E000C943E0068
:100020000C943E000C943E000C943E000C943E0058
:100030000C943E000C943E000C943E000C943E0048
:100040000C943E000C943E000C943E000C943E0038
:100050000C943E000C943E000C943E000C943E0028
:100060000C943E000C943E0011241FBECFEFD8E04C
:10007000DEBFCDBF0E9451000C9467000C940000BD
:10008000E0E8F0E08081826880838FE39CE99093D0
:10009000870080938600E1E8F0E080818A618083B8
:1000A0000895219A0E9440008FEC97E027EB3BE0F7
:1000B0009093890080938800B09BFECFB09A3093D4
:1000C000890020938800B09BFECFB09AF1CFF894BE
:0200D000FFCF60
:00000001FF
